:020000040800F2
:10000000B808002051010008A71A00085718000876
:10001000A51A0008A5020008072700080000000034
:10002000000000000000000000000000E51C0008C7
:10003000A702000800000000A91A0008E71C000839
:100040006B0100086B0100086B0100086B010008E0
:100050006B0100086B0100086B0100086B010008D0
:100060006B0100086B0100086B0100086B010008C0
:100070006B0100086B0100086B0100086B010008B0
:100080006B0100086B0100086B0100086B010008A0
:100090006B0100086B0100086B0100086B01000890
:1000A0006B0100086B0100086B0100086B01000880
:1000B0006B0100086B0100086B0100086B01000870
:1000C0006B0100086B0100086B0100086B01000860
:1000D000D92600086B0100086B0100086B010008BD
:1000E0006B0100086B0100086B0100086B01000840
:1000F0006B0100086B0100086B0100086B01000830
:100100006B0100086B0100086B0100086B0100081F
:100110006B0100086B0100086B0100086B0100080F
:100120006B0100086B0100086B0100086B010008FF
:100130006B0100086B0100086B010008DFF80CD0B0
:1001400000F09EF80048004789280008B808002001
:100150000648804706480047FEE7FEE7FEE7FEE761
:10016000FEE7FEE7FEE7FEE7FEE7FEE7D11D00083B
:100170003D0100082DE9F05F0546002092469B46B0
:1001800088460646814640241BE0284641464746AD
:10019000224600F065F853465A46C01A914110D3E2
:1001A00011461846224600F04CF82D1A67EB01085C
:1001B0004F4622460120002100F043F817EB0009CA
:1001C0004E41201EA4F10104DFDC484631462A4698
:1001D0004346BDE8F09F40EA01039B0703D009E0D6
:1001E00008C9121F08C0042AFAD203E011F8013B23
:1001F00000F8013B521EF9D27047D2B201E000F87C
:10020000012B491EFBD270470022F6E710B51346BA
:100210000A4604461946FFF7F0FF204610BD30B5E8
:1002200005462A460B4612F8010B13F8014B08B19C
:10023000A042F8D01CB1002802D06D1CF1E728467E
:1002400030BD202A04DB203A00FA02F1002070477A
:100250009140C2F1200320FA03F319439040704704
:10026000202A04DB203A21FA02F00021704721FA0B
:1002700002F3D040C2F12002914008431946704772
:10028000064C074D06E0E06840F0010394E80700E3
:1002900098471034AC42F6D3FFF754FF7C2A00088D
:1002A0009C2A0008FEE7704772B6FEE710B540B121
:1002B00090F825100023022905D00421C16380F89D
:1002C0002430012010BD01680A6822F00E020A6085
:1002D000816C0A6822F480720A6001680A6822F060
:1002E00001020A6090F84410046C01F01C01012224
:1002F00002FA01F16160D0E913144C60416D31B133
:100300000C6824F480740C60D0E916144C6080F8FA
:10031000252080F82430002010BD10B590F825105D
:100320000024022903D00421C16301242BE00168C9
:100330000A6822F00E020A6001680A6822F00102CF
:100340000A60816C0A6822F480720A6090F8441096
:10035000036C01F01C01012202FA01F15960D0E99D
:1003600013134B60416D31B10B6823F480730B6044
:10037000D0E916134B6080F82520002180F8241066
:10038000816B01B18847204610BD000070B504465E
:1003900000F0E6F80546601C02D0044800780444EA
:1003A00000F0DEF8401BA042FAD370BD1C00002014
:1003B0002DE9FC4FDFF884A1DFF880E1002301255F
:1003C00003244FF00F0C0AF1040BAEF1800EADE0E8
:1003D00005FA03F716EA07026FD04E68012E05D022
:1003E000022E03D0112E01D0122E17D1D0F8089072
:1003F0005E0004FA06F829EA08090096D1F80C8094
:1004000008FA06F848EA0908C0F808804668BE43BA
:100410000F79C7F300179F4037434760C6684FEA1C
:10042000430804FA08F7BE4301978F6807FA08F7F4
:100430003743C7604E68022E01D0122E10D1DE085D
:1004400000EB86060096366A5F074FEAD7690CFA1A
:1004500009F7BE430F6907FA09F73743009E376271
:100460000668019FBE430F7907F0030707FA08F7F4
:10047000374307604E68F60057D5314E23F0030727
:100480003E44B146B6689F074FEA17780CFA08F762
:10049000BE43B0F1904F04D02A4FB84203D1012798
:1004A00012E0002710E0284FB84201D102270BE0EC
:1004B000264FB84202D1032706E036E0244FB84267
:1004C00001D1042700E0072707FA08F73743C9F8E6
:1004D0000870DAF800605746D1F8048096435FEA66
:1004E000C83800D516433E60DBF800605F46D1F89F
:1004F000048096435FEA883800D516433E60DEF8F4
:1005000000607746D1F8048096435FEAC82800D59A
:1005100016433E60094F7C3F3E68D1F80480964305
:100520005FEA882800D516433E605B1C0A681646C1
:10053000DA407FF44DAFBDE8FC8F00008008005822
:10054000000001400004004800080048000C00487A
:10055000001000480AB18161704781627047000055
:1005600001488068704700001C0000200148406876
:10057000704700001C000020024881680278114486
:10058000816070471C000020094810B501680024F4
:1005900041F480710160032000F05AF8002000F05F
:1005A00009F808B1012401E000F024F8204610BD4C
:1005B0000040005870B50E4E054600243078A0B1BA
:1005C00000F010FB31784FF47A72B2FBF1F1B0FB1E
:1005D000F1F000F049FE40B9102D06D20022294664
:1005E000501E00F015F8756000E00124204670BD33
:1005F0001C0000207047002809DB00F01F020121C9
:1006000091404009800000F1E020C0F800117047DF
:10061000F0B40E4B1B680C46C3F30223C3F107056D
:10062000042D00D90425191D072901D2002300E05B
:10063000DB1E012606FA05F1491E214099409E4025
:10064000761E16403143F0BC02F082B80CED00E09B
:10065000064900F0070208684FF6FF03184040EA19
:100660000220034A10430860704700000CED00E0D0
:100670000000FA0501220168C0F8E822002280F893
:10068000E02231F8540F40F001000880088840F063
:10069000020008801046704770B586B0040004D090
:1006A00094F8A902002518B107E0012006B070BD3A
:1006B00084F8A852204600F049F8032084F8A902E3
:1006C000206802F018F8002001260EE000EB8001FF
:1006D00004EBC10181F8296001F8280FC881CD70B1
:1006E0000D614D61401CC0B28D6161688142EDD8E1
:1006F000002011E000EB800104EBC10181F8695199
:1007000081F8680181F86B51C1F87851C1F87C51CA
:10071000401CC0B2C1F8805161688142EAD81422FD
:1007200004F110016846FFF756FD94E80F0001F050
:10073000D9FF84F8245084F8A962E069012802D125
:100740002046FFF797FF0020B0E7000010B586B005
:10075000044614216846FFF757FD13492068884274
:1007600020D14FF0B044E06C40F00100E064E06C58
:10077000694600F0010005904FF4C050009002203F
:1007800001900020029003900A2004904FF09040C6
:10079000FFF70EFEA06D40F08060A065A06D00F038
:1007A0008060059006B010BD0068004002480068F7
:1007B00000F4C0607047000000040058024801685F
:1007C00041F4807101607047000400584FF0B04060
:1007D000016841F00401016070472DE9F0410446D1
:1007E000002700783E4640064FF0B04517D5206BF5
:1007F00078B1B0F5800F07D0B0F5000F3BD0B0F561
:10080000400F38D0012709E0E86840F48030E86004
:1008100031E0201D01F049F907002CD03E46208828
:10082000000546D5D5F8900000F44076206CB04223
:100830003ED0FFF7C3FF3EB3D5F89000D5F8901037
:1008400041F48031C5F89010D5F8901021F4803132
:10085000C5F89010216C20F440700843C5F8900052
:10086000D5F8900010F0010F22D0FFF779FE064670
:1008700041F2883818E0206BD5F8881021F4400147
:100880000143C5F88810CAE7206CD5F8901021F410
:1008900040710143C5F890100AE0FFF761FE811B2B
:1008A000414501D9032703E000F0FBFF0128F4D103
:1008B0003E462078C00707D0A069D5F8881021F0FF
:1008C00003010143C5F888102078800707D5E06947
:1008D000D5F8881021F440610143C5F888102078CC
:1008E000C00602D5A06A01F03CF82078800602D547
:1008F000E06A01F036F82078400702D5206A01F05E
:1009000021F82078000702D5606A01F01BF82088E2
:10091000C00513D5606B01F00CF8606BB0F1006F8F
:1009200003D1E86840F08070E860606BB0F1806FE0
:1009300004D1201D01F0F3F800B10646208880059F
:100940001BD5A06BB0F1804F10D0B0F1004F0DD08F
:1009500060B120F08057002001F00EF8384600F01A
:10096000E8FFA06BB0F1C05F03D006E001F004F82F
:10097000F7E7E86840F08070E8602088400518D507
:10098000E06BD5F8881021F040510143C5F888107C
:10099000E06BB0F1005F03D1E86840F48030E860BC
:1009A000E06BB0F1805F04D1201D01F0F2F800B1DE
:1009B00006462088C00407D5606CD5F8941021F451
:1009C00040410143C5F89410208880040BD5E06CA9
:1009D000696A21F0300101436962A06C696A21F003
:1009E0000301014369623046BDE8F0812DE9F04121
:1009F0000F46050077D0794E306800F00700B84206
:100A000012D2306820F0070038433060FFF7A8FDAD
:100A1000044604E0FFF7A4FD001B02287DD83068DF
:100A200000F00700B842F5D128784FF0B0448007B5
:100A300015D5A868A16821F0F0010143A160FFF776
:100A40008FFD804606E000BFFFF78AFDA0EB08009F
:100A5000022862D8A068C0F300400028F4D02878AB
:100A6000800617D56869D4F8081121F0F001014318
:100A7000C4F80811FFF774FD804605E0FFF770FD2C
:100A8000A0EB0800022848D8D4F80801C0F3404081
:100A90000028F3D02878400618D5A869D4F80811A2
:100AA00021F00F0141EA1010C4F80801FFF758FDCA
:100AB000804605E0FFF754FDA0EB080002287CD833
:100AC000D4F80801C0F300400028F3D0287840078C
:100AD00015D5E868A16821F4E0610143A160FFF742
:100AE0003FFD804606E046E0FFF73AFDA0EB080038
:100AF000022862D8A068C0F340400028F4D02878CB
:100B0000000716D52869A16821F4605141EAC001A7
:100B1000A160FFF725FD804606E04EE0FFF720FDCF
:100B2000A0EB0800022848D8A068C0F38040002845
:100B3000F4D02878C0072CD06868022805D0032894
:100B400006D0A8B100F09EFE05E000F095FE02E0A0
:100B50002068C0F3406070B16868A16821F00301AB
:100B60000143A160FFF7FCFC044641F288380AE02B
:100B700000F0AEFEEFE70120BDE8F081FFF7F0FCEA
:100B8000011B414519D800F071FE6968B0EB810F77
:100B9000F4D1306800F00700B84215D9306820F071
:100BA000070038433060FFF7DBFC044607E000BF76
:100BB000FFF7D6FC001B022801D90320DCE73068D0
:100BC00000F00700B842F3D100F00CF804490860C7
:100BD000FFF7CCFCBDE8F041FFF7ECBC004000584B
:100BE0002800002010B500F033F84FF0B0418968BC
:100BF000044A01F0F00102EB91010968B0FBF1F049
:100C000010BD0000DC29000810B5FFF7EBFF4FF026
:100C1000B0418968044A01F4E06102EB911109785E
:100C200001F01F01C84010BD5C2A000810B5FFF795
:100C3000D9FF4FF0B0418968044A01F4605102EBDA
:100C40005121097801F01F01C84010BD5C2A00083D
:100C50002DE9F04100F00AFE204F38B3204C042863
:100C60002CD066004FF0B045082829D000F05BFE7C
:100C7000022808D003282AD000F021FE00F0F0005E
:100C800007EB90000468E868E968C0F30620604359
:100C900001F07002012101EB1212B0FBF2F2E868E0
:100CA00001EB5070B2FBF0F0BDE8F08100F007FE00
:100CB00000F0F00007EB90000068F5E72046F3E74E
:100CC0002868C0F300500028F8D13046ECE72868C7
:100CD000C0F300500028D6D13446D4E71C2A0008BF
:100CE0000024F4002DE9F04104007DD020784FF07D
:100CF000B045800661D500F0B9FD064600F013FE50
:100D000076B10C2E01D101280AD0E06900282868AC
:100D100042D040F001002860FFF722FC064630E098
:100D200000F0D6FD10B1E0690028DED000F0C7FD6C
:100D30000146606A81420AD200F0AEFF002853D11A
:100D4000606A00F0D4FD206A00F0C8FD09E000F000
:100D5000CEFD206A00F0C2FD606A00F09DFF002811
:100D6000EDD1FFF73FFFF7490860F7480068FFF74C
:100D700021FC0028E3D120E0FFF7F2FB801B0228D2
:100D800074D800F0A5FD0028F6D0606A00F0AFFD31
:100D9000206A00F0A3FD10E020F001002860FFF7BA
:100DA000DFFB064605E000BFFFF7DAFB801B0228E9
:100DB000E6D800F08DFD0028F6D12078C0073CD0A1
:100DC00000F054FD064600F0AEFD082E13D00C2EA8
:100DD00001D103280FD06068B0F5803F286811D09A
:100DE00020F48030286000E008E26068C0B1FFF7BE
:100DF000B7FB06460FE000F03FFDF0B16068002849
:100E000093D01AE040F48030ECE700BFFFF7A8FB76
:100E1000801B6428B4D800F02FFD0028F6D00CE029
:100E2000FFF79EFB064604E0FFF79AFB801B642851
:100E3000A6D800F021FD0028F6D1207880073CD507
:100E400000F014FD064600F06EFD042E0FD00C2EAF
:100E500001D102280BD0E068002828681CD040F49B
:100E600080702860FFF77CFB064610E03AE100F056
:100E700009FD10B1E0680028C2D0206900F008FD2B
:100E80001BE000BFFFF76CFB801B022890D800F02E
:100E9000F9FC0028F6D0F0E720F480702860FFF716
:100EA0005FFB064605E000BFFFF75AFB801B0228E8
:100EB000B0D800F0E7FC0028F6D12068010701D483
:100EC000C1064ED56169E1B3C0064BD500F0F0FC18
:100ED00098B9D5F8940040F00100C5F89400FFF7E8
:100EE0003FFB064605E000BFFFF73AFB801B0228E8
:100EF00090D800F0DDFC0028F6D0D5F8940040F042
:100F00000400C5F89400FFF72BFB064605E000BF80
:100F1000FFF726FB801B03288AD8D5F89400C0F37E
:100F2000C0000028F4D0A069D5F8941021F47061B5
:100F300041EA0020C5F89400D5F8940020F00100A3
:100F400000E035E0C5F89400FFF70AFB064604E030
:100F5000FFF706FB801B022898D800F0A9FC0028A8
:100F6000F6D14EE0D5F8940040F00100C5F89400A9
:100F7000FFF7F6FA064604E0FFF7F2FA801B0228B4
:100F800084D800F095FC0028F6D0D5F8940020F025
:100F90000400C5F8940004E0FFF7E2FA801B032880
:100FA00086D8D5F89400C0F3C0000028F4D128E01A
:100FB000D5F8940020F00400C5F89400FFF7D0FAAB
:100FC000064604E0FFF7CCFA801B032890D8D5F83A
:100FD0009400C0F3C0000028F4D1D5F8940020F0AC
:100FE0000100C5F89400FFF7BBFA064605E000BF14
:100FF000FFF7B6FA801B022874D800F059FC0028CD
:10100000F6D12078400750D5504F3868C0050DD430
:10101000FFF7D4FBFFF7A4FA064604E0FFF7A0FAB7
:10102000801B02285ED83868C005F7D5A068012863
:1010300016D00528D5F8900017D020F00100C5F88B
:101040009000D5F8900020F0040000BFC5F8900093
:10105000A06841F28836C8B1FFF782FA07460EE071
:10106000D5F8900040F00100F0E740F00400C5F82A
:101070009000F5E7FFF774FAC01BB04232D8D5F8FC
:101080009000C0F340000028F4D00EE0FFF768FAAB
:10109000074604E0FFF764FAC01BB04222D8D5F837
:1010A0009000C0F340000028F4D1207840062ED5EF
:1010B000A06A0028D5F8980015D040F00100C5F8C6
:1010C0009800FFF74DFA064605E000BFFFF748FA23
:1010D000801B022806D8D5F89800C0F340000028ED
:1010E000F4D014E089E020F00100C5F89800FFF783
:1010F00037FA064605E000BFFFF732FA801B0228E8
:101100007BD8D5F89800C0F340000028F4D1E06AFD
:10111000F0B300F0ABFB0146E868E26A022A19D09E
:101120000C296BD0286820F080702860E86820F0D7
:101130000300E860E86806490840E860FFF710FA35
:10114000044687E02800002020000020000400580A
:10115000FFFFFEEE236B00F003029A421AD1636B8D
:1011600000F070029A4215D1A26BC0F306239A4296
:1011700010D1E36B00F478129A420BD1236C00F08B
:1011800060629A4206D1626C00F06040904200E0DA
:1011900056E03ED00C2962D0286840015FD4286810
:1011A00020F080702860FFF7DBF9064605E000BFFD
:1011B000FFF7D6F9801B022849D828688001F7D4A8
:1011C000D4E90C010843D4E90E2141EA0221084385
:1011D000216C0843616C0843E968224A11400843C6
:1011E000E860286840F080702860E86840F080502F
:1011F000E860FFF7B5F9044607E028E02FE000BFFC
:10120000FFF7AEF9001B022821D828688001F7D526
:1012100023E02868800120D4286840F0807028608E
:10122000E86840F08050E860FFF79AF9044604E06F
:10123000FFF796F9001B022809D828688001F7D526
:101240000BE000BFFFF78CF9001B022802D9032036
:10125000BDE8F08128688001F4D40020F8E701207F
:10126000F6E700008C80C11110B5401EB0F1807F00
:1012700001D3012010BD4FF0E02460610F21601701
:1012800001F066FA0020A06107202061002010BD57
:1012900090F88010012918D0012180F880102421B5
:1012A000C0F8841050F8641B0A680B6823F001032F
:1012B0000B6022F000510022026050F8643C19607B
:1012C0002021016202771046704702207047704764
:1012D000704770B5044690F8800001281DD00120A9
:1012E00084F880002420C4F884002068056802681F
:1012F00022F0010202602068826822F060620A43E4
:101300008260204600F092FD206805602020C4F82D
:101310008400002084F8800070BD022070BD70B58C
:10132000044690F8800001281DD0012084F8800038
:101330002420C4F8840020680568026822F00102B5
:1013400002602068826822F060420A438260204680
:1013500000F06CFD206805602020C4F884000020A7
:1013600084F8800070BD022070BD704770477047E0
:101370002DE9F04103680446D86919689A6840F677
:101380000F0528424FF0000509D186067ED501F0F1
:10139000200602F080573E4378D0216FFFE0924E46
:1013A000924F16400F40374370D0C70709D0CF0582
:1013B00007D501271F62D4F88C3043F00103C4F82D
:1013C0008C3083070AD5D30708D0276802233B62F5
:1013D000D4F88C3043F00403C4F88C3043070AD5AA
:1013E000D30708D0276804233B62D4F88C3043F03D
:1013F0000203C4F88C3003070CD501F020033343FB
:1014000008D0266808233362D4F88C3043F00803F0
:10141000C4F88C3003050BD54B0109D526684FF471
:1014200000633362D4F88C3043F02003C4F88C306E
:10143000D4F88C30002B34D0800609D501F0200080
:1014400002F08051084303D0216F09B1204688473C
:10145000D4F88C0021688968490602D410F0280F5E
:1014600021D0204600F0A2FD20688168490615D5EC
:10147000816821F040018160E06F78B15C4981634F
:10148000E06FFEF74AFF00280BD000E011E0E06FAC
:10149000816B00E02046BDE8F04108472046FFF799
:1014A00066FFBDE8F0812046FFF761FFC4F88C506D
:1014B000F7E7E76E2026012F5CD1C7065AD5CF0685
:1014C00058D5102018622068816849062FD5E26F30
:1014D000116849680904090CE3D0B4F85C308B4208
:1014E000DFD9A4F85E1011680968890618D401686C
:1014F00021F4807101602068816821F00101816020
:101500002068816821F040018160C4F88860E56648
:101510002068016821F010010160E06FFEF7C6FE4F
:10152000B4F85C00B4F85E10401A81B21EE0B4F862
:101530005C10B4F85E20891AB4F85E2089B2002AE3
:10154000AFD00029ADD0026822F49072026020680A
:101550008268254BDB431A408260C4F88860E566E8
:1015600025672068026822F0100202602046FFF71B
:10157000AEFE96E7C70209D5570207D54FF4801093
:1015800018622046BDE8F041FFF7F0BE07060AD515
:1015900001F0800702F40002174304D0616F0029B4
:1015A0007FF478AF7DE742060CD54A060AD5196864
:1015B000204621F040011960C4F88460656700F09E
:1015C00049F96EE7020206D54A0004D52046BDE877
:1015D000F041FFF7CABEC001CBD50029C9DA2046C9
:1015E000BDE8F041FFF774BE0100001020010004C7
:1015F000991F000810B5040003D0D4F8840010B17E
:1016000007E0012010BD002084F88000204600F093
:1016100027F82420C4F884002068016821F0010123
:101620000160204600F09AFE0128EBD0A06A10B1BC
:10163000204600F01DFC2068416821F49041416083
:101640002068816821F02A0181602068016841F0EA
:10165000010101602046BDE8104000F06DBC0000B3
:1016600010B586B0044614216846FEF7CDFD174933
:101670002068884227D14FF0B040016E41F480418C
:101680000166016E01F480410591C16C41F00201D7
:10169000C164C06C694600F002000590C020009053
:1016A0000220019001200290002003900720049066
:1016B0000748FEF77DFE002211462420FEF7A8FF12
:1016C0002420FEF798FF06B010BD0000003801404E
:1016D0000004004810B4D0F88830202B1BD1B9B1D9
:1016E000B2B190F88030012B15D0012380F8803002
:1016F0000023C366094C0368A34206D05C68240239
:1017000003D51C6844F080641C6010BC00F026BF48
:10171000012010BC70470220FBE700000080004061
:1017200070B5184818490068884229D1174C00261E
:101730002078802822D8164DA17801222954401CF7
:101740002070A11C0F48FFF7C5FF2078284410F82F
:10175000011C0A2914D110F8020C0D2810D1267092
:10176000012060702A460BA102F1800000F0DCFF2E
:10177000BDE8704080210648FEF746BD2670F7E7B9
:1017800070BD00003001002000380140040000203E
:1017900030000020257300002DE9F8430446D0F8FE
:1017A00084001F4616460D46202851D1DDB1D6B122
:1017B00094F8800001284BD0012084F880004FF07D
:1017C0000008C4F88C802120C4F884001834FEF787
:1017D000C7FEA6878146E68754F8100C183CB0F582
:1017E000805F03D004E00120BDE8F883206920B1C8
:1017F0002E46002584F8808010E00026FAE780213C
:10180000204600F017FFB8B9C6B116F8010B2168E1
:101810008862B4F85600401EA4F85600B4F856008A
:101820004B464FF0000200970028E8D14FF04001EE
:10183000204600F0FFFE30B10320D5E735F8020B5B
:10184000C0F30800E3E72020C4F884000020CBE7C1
:101850000220C9E77047FEE708B54FF0B041CA6CF7
:101860000243CA64C96C0140009108BD4FF0B0400A
:10187000806800F00C0070474FF0B0400068C0F383
:10188000404070474FF0B0400068C0F38020704780
:101890004FF0B0414A6822F0FE4242EA00604860E0
:1018A00070474FF0B040D0F89000C0F34000704750
:1018B0004FF0B040D0F89400C0F3400070474FF0B4
:1018C000B040006800F0F000B02800D9B0207047A8
:1018D0004FF0B0400068C0F3400070474FF0B04197
:1018E0004A6822F47F4242EA0020486070474FF085
:1018F000B0410A6822F0F00202430A6070474FF0DC
:10190000B040016821F08061016070474FF0B04045
:10191000016841F08061016070474FF0B04000689D
:10192000C0F3C06070474FF0B040C06800F00300E3
:1019300070474FF0B04151F8882F22F040620243C7
:101940000A60704710B54FF0B04151F8883F4FF42E
:101950007F2202EA1014A34302EA001003430B6043
:1019600010BD4FF0B04151F8882F030C1B049A436F
:1019700042EA0040086070474FF0B04151F8882FAC
:1019800022F0404202430A607047000030B585B043
:1019900014216846FEF738FC0420FFF75DFF0220A3
:1019A000FFF75AFF0120FFF757FF0820FFF754FF0A
:1019B000114D002223212846FEF7CCFD00241020E3
:1019C000CDE9000469460D480294FEF7F1FC23209E
:1019D00000900120CDE90104694628460394FEF7F2
:1019E000E7FC0320CDE90004694605480294FEF7B0
:1019F000DFFC05B030BD00000004004800080048CE
:101A0000000C0048184810B5164901604FF4E13148
:101A10004160C904816000210C22C160C0E9041248
:101A20008161C161016241628162FFF7E3FD08B13A
:101A3000FEF73AFC00210C48FFF771FC08B1FEF7F5
:101A400033FC00210848FFF744FC08B1FEF72CFCEA
:101A50000548FFF71DFC002803D0BDE81040FEF745
:101A600023BC10BD00380140300100200C4810B5E7
:101A70000A49016008214160022181600161002161
:101A800041618161C1610162FEF706FE002803D059
:101A9000BDE81040FEF708BC10BD00000068004023
:101AA000C0010020FEE7FEE770472DE9F041064641
:101AB0000025FFF724FFFEF753FD044604E0FEF780
:101AC0004FFD001B02281DD8FFF727FF0028F6D185
:101AD0004FF0B0442069316820F4FE4040EA012014
:101AE00020612069716820F4781008432061FFF7B5
:101AF0000DFFFEF735FD074606E0FEF731FDC01B82
:101B0000022801D9032507E0FFF707FF0128F4D1D8
:101B100020693169084320612846BDE8F0812DE93C
:101B2000F04106460025FFF7EAFEFEF719FD0446E0
:101B300004E0FEF715FD001B02281DD8FFF7EDFE9F
:101B40000028F6D14FF0B0442069316820F4FE40FF
:101B500040EA012020612069B16820F060600843FC
:101B60002061FFF7D3FEFEF7FBFC074606E0FEF719
:101B7000F7FCC01B022801D9032507E0FFF7CDFEC3
:101B80000128F4D120693169084320612846BDE865
:101B9000F0812DE9F04106460025FFF7B0FEFEF783
:101BA000DFFC044604E0FEF7DBFC001B02281DD826
:101BB000FFF7B3FE0028F6D14FF0B044206931683A
:101BC00020F4FE4040EA012020612069F16820F005
:101BD000604008432061FFF799FEFEF7C1FC07460D
:101BE00006E0FEF7BDFCC01B022801D9032507E073
:101BF000FFF793FE0128F4D1206931690843206181
:101C00002846BDE8F081000070B5214A8EB00DF184
:101C1000100C78CA8CE8780038CA08AE86E838001C
:101C20003CCA8DE83C000024B1F5007F6A4621469D
:101C300007D008AB53F8215085420BD352F821400E
:101C40000BE004AB53F821508542F7D2491C04291C
:101C5000F8D302E0491C0329ECD30E4E306820F083
:101C6000070020433060FEF77BFC054608E000BF1C
:101C7000FEF776FC401B022802D903200EB070BD8F
:101C8000306800F00700A042F2D10020F6E7000023
:101C9000B02900080040005810B50F49B02801D9FC
:101CA000C86A03E03C2202EA900008584FF0B041B5
:101CB000D1F80811094A01F00F0152F82110B0FBC8
:101CC000F1F4FEF773FD01460548B4FBF0F0BDE802
:101CD0001040FFF799BF00001C2A0008DC2900080B
:101CE00040420F007047FEF747BC000010B5AEB091
:101CF000482114A8FEF788FA1C2126A8FEF784FACA
:101D000050216846FEF780FA4FF0B044E06820F0BA
:101D10007000E060E06820F00300401CE060FEF727
:101D20004DFDD4F8900020F01800C4F8900027482A
:101D3000016821F4C06141F4007101600068002471
:101D400000F4C0602D90272014904FF4803015903F
:101D500001200102CDE916011B904020189060205F
:101D6000CDE91C4014A81F94FEF7BCFF08B172B661
:101D7000FEE76F2026900220CDE9270429942A94BB
:101D80002B94012126A82C94FEF730FE08B172B6E0
:101D9000FEE742F201100090182001904FF400304D
:101DA000029000020390000104904011CDE9050467
:101DB000800012940D9013946846FEF70EFD08B152
:101DC00072B6FEE7FEF702FD2EB010BD000400580B
:101DD0001348016841F4700101604FF0B0400168A0
:101DE00041F0010101604FF4E021816001680D4A7A
:101DF00011400160D0F8941021F00501C0F8941052
:101E0000D0F8981021F00101C0F898100649C1607F
:101E10000161016821F48021016000218161704726
:101E200088ED00E0FBFEF6FA0010042230B5416EAA
:101E3000B9B1026891689268C1F342610B4B520FCD
:101E40009C5CE50003F10804A25CB5FBF2F2A0F88B
:101E50006A205A5C615CD200B2FBF1F1A0F8681014
:101E600030BD0121A0F86A10F8E70000A0290008A1
:101E700090F82810C90706D001684A68C36A22F49E
:101E800000321A434A6090F82810890706D5016885
:101E90004A68036B22F480321A434A6090F8281093
:101EA000490706D501684A68436B22F480221A4329
:101EB0004A6090F82810090706D501684A68836BC4
:101EC00022F400421A434A6090F82810C90606D549
:101ED00001688A68C36B22F480521A438A6090F8C2
:101EE0002810890606D501688A68036C22F400521E
:101EF0001A438A6090F82810490611D501684A688B
:101F0000436C22F480121A434A60416CB1F5801F81
:101F100006D101684A68836C22F4C0021A434A6001
:101F200090F82810090606D501684A68C06C22F4AA
:101F3000002202434A607047F8B500260446C0F804
:101F40008C60FEF70DFB0546206800686FF07E4749
:101F5000000708D52B4600224FF4001120460097B9
:101F600000F068FB60B92068006840070AD52B467E
:101F700000224FF480012046009700F05BFB08B17F
:101F80000320F8BD2020C4F88400C4F8880044F879
:101F90006C6F00202675F8BD10B5806A0021A0F88E
:101FA0005E10A0F85610FFF7E2F910BD01680A684C
:101FB00022F490720A6001688A68094B1A408A60AC
:101FC000C16E012904D101680A6822F010020A607A
:101FD0002021C0F888100021C16601677047000009
:101FE000FEFFFFEF70B5B0F86010D0F8882004460F
:101FF0000068222A04D0816941F00801816170BD26
:10200000406AA26D08401080A06D801CA065B4F8E5
:102010005E00401EA4F85E00B4F85E000028EED119
:102020002068016821F4907101602068816821F0C6
:10203000010181602020C4F8880000252567E06E3A
:10204000012804D02046FFF76BFBE56670BD2068D1
:10205000016821F010010160B4F85C102046FFF720
:1020600036F9F2E72DE9F0470446B0F86060006801
:10207000C569D0F800A0D0F80880D4F888102229CB
:1020800005D0816941F008018161BDE8F087B4F8AD
:1020900068704FF000095BE02068406AA16D304035
:1020A0000880A06D801CA065B4F85E00401EA4F8F6
:1020B0005E002068C569690730D0E9070AD05FEA89
:1020C000CA5107D501210162D4F88C0040F001000B
:1020D000C4F88C00A8070BD55FEAC87008D0216847
:1020E00002200862D4F88C0040F00400C4F88C0090
:1020F00068070BD55FEAC87008D021680420086221
:10210000D4F88C0040F00200C4F88C00D4F88C00A5
:1021100020B12046FFF72BF9C4F88C90B4F85E008C
:10212000B0B92068016821F480710160206881687D
:10213000194A114081602020C4F88800C4F87090CA
:10214000E06E01281CD02046FFF7EAFAC4F86C9034
:102150000FB1A806A0D4B4F85E00002895D0B4F85A
:102160006810814291D92068816821F08051816096
:102170000A4820672068016841F02001016084E777
:102180002068016821F010010160B4F85C1020465D
:10219000FFF79DF8DAE70000FEFFFFEFE51F0008FC
:1021A00070B5B0F86010D0F8882004460068222A84
:1021B00004D0816941F00801816170BD406A084026
:1021C000A16D0870A06D401CA065B4F85E00401EB3
:1021D000A4F85E00B4F85E000028EED12068016823
:1021E00021F4907101602068816821F00101816013
:1021F0002020C4F8880000252567E06E012804D05F
:102200002046FFF78DFAE56670BD2068016821F071
:1022100010010160B4F85C102046FFF758F8F2E7AF
:102220002DE9F0470446B0F860600068C569D0F851
:1022300000A0D0F80880D4F88810222905D0816940
:1022400041F008018161BDE8F087B4F868704FF093
:1022500000095BE02068406AA16D30400870A06D05
:10226000401CA065B4F85E00401EA4F85E00206823
:10227000C569690730D0E9070AD05FEACA5107D5B6
:1022800001210162D4F88C0040F00100C4F88C00F8
:10229000A8070BD55FEAC87008D021680220086241
:1022A000D4F88C0040F00400C4F88C0068070BD50B
:1022B0005FEAC87008D0216804200862D4F88C0056
:1022C00040F00200C4F88C00D4F88C0020B1204605
:1022D000FFF74DF8C4F88C90B4F85E00B0B92068F0
:1022E000016821F48071016020688168194A1140F9
:1022F00081602020C4F88800C4F87090E06E012846
:102300001CD02046FFF70CFAC4F86C900FB1A80659
:10231000A0D4B4F85E00002895D0B4F868108142CB
:1023200091D92068816821F0805181600A48206736
:102330002068016841F02001016084E7206801689D
:1023400021F010010160B4F85C102046FEF7BFFFD9
:10235000DAE70000FEFFFFEFA12100082DE9F041C0
:10236000044600682269A168E66911436269002594
:1023700032431143724B0268724E32400A4302608C
:1023800020684168E26821F44051114341602168AE
:10239000A069994201D0226A10438A686A4E32408D
:1023A00002438A602068C16A626A21F00F0111430A
:1023B000C1626649D4F800C04FF0B0408C450DD1E1
:1023C000D0F8880010F0030006D001281DD00228A4
:1023D00019D003281BD112E0012119E09C4516D128
:1023E000D0F888004FF4406110F4406009D0B0F597
:1023F000806F0AD0B0F5006F05D0884207D1082160
:1024000006E0002104E0022102E0042100E01021A6
:102410004F4A504F00264FF400409C4531D131B116
:10242000022907D0042907D008297AD107E0FEF74E
:10243000EBFB03E0104602E0FEF70AFC78B3616AAA
:1024400037F811206768B0FBF2F107EB47038B42C6
:1024500067D8B1EB073F64D800231946FDF78AFE21
:10246000090241EA106102027808101871413A46E7
:102470000023FDF77FFE384AA0F54071914252D902
:102480004FE0E3694FF6EF7883422AD1012907D064
:10249000022908D0042908D0082942D108E041E0E7
:1024A000FEF7C4FB03E0104602E0FEF7D1FBC8B321
:1024B000616A37F81110B0FBF1F04100606801EB80
:1024C0005001B1FBF0F080B2A0F11001414528D8D5
:1024D0004FF6F0710140C0F3420001432068C16033
:1024E00023E0012906D0022907D0042907D00829B2
:1024F00017D107E0FEF79AFB03E0104602E0FEF773
:10250000A7FB78B1616A37F81110B0FBF1F1606890
:1025100001EB5001B1FBF0F080B2A0F11001414598
:1025200001D9012501E02168C8600120A4F86A00F2
:1025300024F8680F2846A660E660BDE8F081000038
:1025400000800040F369FFCFFFF4FF110038014025
:102550000024F40088290008FFFC0F0070B5816595
:10256000A0F85C20A0F85E200021016783684FF48A
:102570008056FF24B34204D10369D3B940F2FF135C
:102580001DE07F259BB1B3F1805F15D0A0F86010EE
:10259000C0F88C102223C0F8883003689C6844F08F
:1025A00001049C60436EB3F1005F0ED027E0036925
:1025B00043B9A0F86040EBE703691BB13F23A0F8E3
:1025C0006030E5E7A0F86050E2E7B0F86830934289
:1025D00015D88268B24201D1026972B1114A02670C
:1025E00080F8801001680A6842F480720A6000680E
:1025F000816841F0805181600FE00B4AEFE782680B
:10260000B24201D1026952B1084A026780F88010D3
:102610000068016841F490710160002070BD044AB7
:10262000F3E700002122000865200008A12100082E
:10263000E51F00082DE9F0479A4617460E46044666
:102640004FF000094FF02008089D39E0681C37D092
:10265000FDF786FFA0EB0A00A84222D80DB3206840
:10266000016849072CD5C069C043000528D42168FA
:102670004FF4006008622068016821F4D0710160A5
:102680002068816821F001018160C4F88480C4F869
:102690008880C4F88C8000BF84F880900320BDE857
:1026A000F0872068016821F4D0710160206881689A
:1026B00021F001018160C4F88480C4F88880EBE7D0
:1026C0002068C06936EA000004D00020B842BDD0BE
:1026D0000020E4E70120F9E70148FEF749BE0000C9
:1026E00030010020012120F8401F0021018081805D
:1026F00001820846704730F8401F4BF680729143C4
:10270000018000207047FEE70FB4054B10B503A908
:10271000044A029800F03BF810BC5DF814FB00007E
:10272000712800082C0000200FB4084B10B504A934
:1027300002AA039800F02BF8044602A9002000F03A
:1027400091F8204610BC5DF814FB000065280008D5
:102750000907090E002804DB00F1E02080F80014CE
:10276000704700F00F0000F1E02080F8141D704762
:1027700002E008C8121F08C1002AFAD1704770474A
:10278000002001E001C1121F002AFBD170472DE992
:10279000F84F9946924688460546002706E02528C8
:1027A0000AD051464A4690476D1C7F1C2878002865
:1027B000F5D13846BDE8F88F002315F8011F1846FB
:1027C0002E2915D115F8011F04232A290DD06FF0E9
:1027D0002F022978A1F13004092C09D800EB8000E0
:1027E00002EB400008446D1CF3E758F8040B6D1C25
:1027F0002A78002ADDD0632A07D0732A0FD010462A
:1028000051464A4690477F1C2AE018F8042B8DF861
:10281000002000218DF801106E46012103E058F8D8
:10282000046B4FF0FF315A074FF0000401D409E068
:10283000641C84420BDA8C42FADB325D002AF7D149
:1028400005E0641C8C42FCDB305D0028F9D1274494
:1028500004E016F8010B51464A469047641EF8D230
:102860006D1CA3E70A68531C0B60107070470000D2
:1028700013B54FF6FF73012269460248FEF78CFF3D
:1028800000981CBD30010020FDF77EFEFFF72EFAF8
:10289000FFF77CF8FFF7B6F8FFF7E8F801222649C2
:1028A0002648FEF717FF244C254DA41E25A0FFF750
:1028B0002BFF6420FDF76AFD60780128F6D12649D8
:1028C00026A0FFF721FF0020607025A12248FDF718
:1028D000A6FC606024A12048FDF7A1FCA06024A113
:1028E0001D48FDF79CFCE06023A11B48FDF797FC09
:1028F000206123A11848FDF792FC6061606820B157
:10290000012211462846FDF725FEE06820B100228D
:1029100001212846FDF71EFEA06820B101220221F8
:102920002846FDF717FE20690028BFD000220221AB
:102930002846FDF70FFEB9E7060000203001002011
:102940000004004848656C6C6F20776F726C6421DE
:1029500021210D0A00000000B000002025730000B6
:102960004C4432204F4E00004C4433204F4E000068
:102970004C4432204F4646004C4433204F464600DC
:102980004C44312050574D00010002000400060065
:1029900008000A000C001000200040008000000128
:1029A00001010103070100000804020408010101FC
:1029B000120000002400000036000000400000006B
:1029C000060000000C0000001000000000000000E5
:1029D00001000000020000000300000001000000F0
:1029E00003000000050000000100000001000000DD
:1029F000060000000A0000002000000002000000A5
:102A0000040000000800000010000000400000006A
:102A1000800000000001000000020000A08601000C
:102A2000400D0300801A060000350C0040420F00E4
:102A300080841E0000093D0000127A000024F4008A
:102A400000366E010048E801006CDC020000000066
:102A50000000000000000000000000000000000076
:102A60000000000000000000000000000100000065
:102A70000200000003000000040000009C2A00087F
:102A8000040000202C00000070270008C82A00085D
:102A900030000020880800008027000800000000A7
:102AA0000000000000000000000000000000000026
:102AB0000000000001000000100000000000000005
:082AC00000093D0000000000C8
:040000050800013DB1
:00000001FF
